:020000040800F2
:1000000008100020E1010008210A0008D3090008B7
:100010001D0A0008330700080F1300080000000045
:10002000000000000000000000000000510D00086A
:100030003707000800000000A90A00083D0E00086C
:10004000FB010008FB010008FB010008FB010008A0
:10005000FB010008FB010008FB010008FB01000890
:10006000FB010008FB010008FB010008FB01000880
:10007000FB010008FB010008FB010008FB01000870
:10008000FB010008FB010008FB010008FB01000860
:10009000FB010008FB010008FB010008FB01000850
:1000A000FB010008FB010008FB010008FB01000840
:1000B000FB010008FB010008FB010008FB01000830
:1000C000FB010008FB010008FB010008FB01000820
:1000D000FB010008F1100008FB010008FB0100080B
:1000E000FB010008FB010008FB010008FB01000800
:1000F000FB010008FB010008FB010008FB010008F0
:10010000FB010008FB010008FB010008FB010008DF
:10011000FB010008FB010008FB010008FB010008CF
:10012000FB010008FB010008FB010008FB010008BF
:1001300000F002F800F045F80AA090E8000C8244B4
:100140008344AAF10107DA4501D100F03AF8AFF291
:10015000090EBAE80F0013F0010F18BFFB1A43F0A5
:1001600001031847C8370000E8370000103A24BFE1
:1001700078C878C1FAD8520724BF30C830C144BF0C
:1001800004680C607047000000230024002500264E
:10019000103A28BF78C1FBD8520728BF30C148BFEA
:1001A0000B607047642900F0B580752900F0B280BB
:1001B000732900F0BA81002070471FB51FBD10B52C
:1001C00010BD00F0B6F91146FFF7F7FF02F068FE28
:1001D00000F0D4F903B4FFF7F2FF03BC00F0DCF940
:1001E0000948804709480047FEE7FEE7FEE7FEE7CB
:1001F000FEE7FEE7FEE7FEE7FEE7FEE70448054907
:10020000054A064B70470000F90E0008310100084E
:10021000080A002008100020080C0020080C00200C
:100220000FB47CB50C0009AA009001D02044401EF8
:10023000084B7B4469460190089800F044F9054654
:100240001CB10020694600F051F928467CBC5DF8DD
:1002500014FB0000C10200002DE9F0410E460446E7
:10026000002020622046E168884730B3252805D069
:10027000D4E901219047206A401CF2E7E16820465A
:1002800000278847050018D0A5F14100192802D899
:1002900020354FF400673246294620462760FFF795
:1002A00081FF40B1012804D0F61D26F0070608366C
:1002B000D8E7361DD6E72846DAE7206ABDE8F081A0
:1002C00070B50C460546012A05D02878800600D571
:1002D000EA69002302E0012305E05B1C934202D29D
:1002E000E05C0028F9D1A869E618C01AA861286A5C
:1002F000184428622846AFF3008004E0D5E90121C4
:1003000014F8010B9047B442F8D32846AFF30080AD
:1003100070BD00002DE9F0410646002410687529E3
:10032000314616A510D0AFF30080002802DA404213
:1003300013A507E031688A0701D512A502E0490735
:1003400004D511A5012401E0AFF3008000210A22A9
:1003500006F1240709E0B0FBF2FCB0FBF2F302FB6C
:100360001C00303078541846491C0028F3D123462D
:100370002A463046BDE8F04100F047B800000000D2
:100380002D0000002B00000020000000401ECAB21B
:1003900010F8011F8A4202D00029F9D100207047CD
:1003A00010B5203AC0F00B80B1E81850203AA0E810
:1003B0001850B1E81850A0E81850BFF4F5AF5FEA44
:1003C000027C24BFB1E81850A0E8185044BF18C9F7
:1003D00018C0BDE810405FEA827C24BF51F8043B9E
:1003E00040F8043B08BF7047D20728BF31F8023BF2
:1003F00048BF11F8012B28BF20F8023B48BF00F886
:10040000012B70477047704770472DE9F0470D4644
:1004100099469246044600F124080168880604D5EE
:10042000E06921F01001216000E00120A84201DD17
:10043000471B00E00027A1697A1902EB0900081A9E
:10044000A0612078C00602D42046AFF300800026C9
:1004500008E0D4E901211AF806009047206A401C00
:10046000761C20624E45F4DB2078C0060AD5204673
:10047000AFF3008006E0D4E9012130209047206AE4
:10048000401C2062381EA7F10107F4DC07E0D4E924
:10049000012118F805009047206A401C2062281EA0
:1004A000A5F10105F3DC2046AFF3008020780006BB
:1004B00002D50220BDE8F0870120FBE701694A1C54
:1004C00002610878704700B58FB0CDE90131002195
:1004D000059105497944CDE9031011466846FFF7B7
:1004E000BBFE0FB000BD0000E5FFFFFF0A6802F889
:1004F000010B0A607047D1E900239A4202D2531CD3
:100500000B601070704710B5436913B1AFF30080F2
:1005100001E0FFF7D5FE012010BD127800F12401A3
:100520000A7000224A700122EDE711684FF0FF3295
:10053000E9E7754600F02CF8AE46050069465346DB
:1005400020F00700854618B020B5FFF757FEBDE83C
:1005500020404FF000064FF000074FF000084FF02A
:10056000000B21F00701AC46ACE8C009ACE8C009BB
:10057000ACE8C009ACE8C0098D46704710B5044628
:10058000AFF300802046BDE81040FFF723BE000017
:1005900000487047A809002001491820ABBEFEE7BB
:1005A00026000200704721B1826842F00102826099
:1005B00003E0826822F00102826070470146002059
:1005C0008A6802F004020AB1012000E000207047AE
:1005D0000146C86C80B270470246002013680B4089
:1005E0000BB1012000E000207047014600208A681E
:1005F00002F008020AB1012000E00020704700006C
:1006000030B502460020002350680F4C20400D7981
:100610000C6844EA05242043506090680B4C20404D
:10062000D1E902542C434D7944EA450420439060BB
:10063000D06A20F470000C7C641EE4B2234340EACC
:100640000350D06230BD0000FFFEF0FFFDF7F1FF68
:10065000F0B504460D4600200021092D11DDE068AB
:10066000A5F10A0606EB4607072606FA07F18843B6
:10067000A5F10A0606EB460603FA06F10843E06018
:100680000CE0206905EB4507072606FA07F18843C9
:1006900005EB450603FA06F108432061072A0FDA45
:1006A000606B561E06EB86071F2606FA07F1884385
:1006B000561E06EB860605FA06F10843606322E043
:1006C0000D2A0FDA206BD61F06EB86071F2606FAC7
:1006D00007F18843D61F06EB860605FA06F10843A4
:1006E000206310E0E06AA2F10D0606EB86071F26E4
:1006F00006FA07F18843A2F10D0606EB860605FA15
:1007000006F10843E062F0BD816841F008018160B4
:10071000704721B1826842F4A002826003E08268DF
:1007200022F4A00282607047816841F00401816078
:10073000704700BFFEE770470549096821F01001C6
:10074000034A1160114609680143116070470000B7
:100750000020024001460020034A106800F03800E3
:1007600008431060704700000020024051B1820031
:10077000A2F1C042126842F001038200A2F1C0421D
:10078000136009E08200A2F1C0421268034B1A40D4
:100790008300A3F1C0431A6070470000FEFF0F0002
:1007A000D0E901121143C268114302691143426941
:1007B000114382691143C2691143026A1143426ABB
:1007C0001143826A1143C26A1143026B11430268EA
:1007D0009200A2F1C0421160816808290BD1016822
:1007E0008900A1F1C041096841F040020168890017
:1007F000A1F1C0410A60416B0968426B526841EA4D
:100800000211426B926841EA0221426B928941EAED
:100810000241426B128A41EA0251426B127D41EA67
:100820000261426B926911430268521C9200A2F16C
:10083000C0421160C16AB1F5804F1BD1816B09685C
:10084000826B526841EA0211826B926841EA02218E
:10085000826B128A41EA0251826B127D41EA026187
:10086000826B9269114302689200A2F1C042C2F801
:10087000041107E06FF0704201688900A1F1C041E6
:10088000C1F8042170472DE9F041024600250026F9
:10089000002000230024002791F803C00CF00F056E
:1008A00091F803C00CF0100CBCF1000F03D091F8CC
:1008B00002C04CEA050591F800C0BCF1000F31D030
:1008C000146800202BE04FF0010C0CFA00F3B1F893
:1008D00000C00CEA03069E4220D183004FF00F0CAB
:1008E0000CFA03F7BC4305FA03FC4CEA040491F844
:1008F00003C0BCF1280F06D14FF0010C0CFA00FC2C
:10090000C2F814C00AE091F803C0BCF1480F05D149
:100910004FF0010C0CFA00FCC2F810C0401C082873
:10092000D1D31460B1F800C0BCF1FF0F34DD5468BE
:1009300000202EE000F1080C4FF0010808FA0CF33B
:10094000B1F800C00CEA03069E4221D183004FF0AB
:100950000F0C0CFA03F7BC4305FA03FC4CEA040441
:1009600091F803C0BCF1280F05D100F1080C08FA7A
:100970000CF8C2F8148091F803C0BCF1480F07D1FD
:1009800000F1080C4FF0010808FA0CF8C2F81080CA
:10099000401C0828CED35460BDE8F08102460020F8
:1009A00093680B400BB1012000E000207047024625
:1009B0000020D3680B400BB1012000E000207047FD
:1009C00041617047016170470AB1016100E0416116
:1009D000704700BFFEE700004CF6CC4001490860BC
:1009E00070470000003000404AF6AA200149086024
:1009F0007047000000300040014948607047000027
:100A0000003000400149886070470000003000401D
:100A100001490860704700000030004000BFFEE759
:100A20007047000070B5002100230F22C47804B382
:100A3000154C246804F4E064C4F5E064210AC1F1B3
:100A40000403CA40447804FA03F184781440214333
:100A500009010E4C0678A155047804F01F05012405
:100A6000AC4005786D11AD0005F1E025C5F80041F9
:100A700009E0047804F01F050124AC40044D067819
:100A8000761145F8264070BD0CED00E000E400E072
:100A900080E100E002490143024A11607047000012
:100AA0000000FA050CED00E0704700000146002050
:100AB000034A506820F440400843506070470000EB
:100AC0000010024029B1064A52690243044B5A61A0
:100AD00004E0034A52698243014B5A6170470000A7
:100AE0000010024029B1064AD2690243044BDA6180
:100AF00004E0034AD2698243014BDA617047000087
:100B00000010024029B1064A92690243044B9A61DF
:100B100004E0034A92698243014B9A6170470000E6
:100B20000010024030B500210022002400232D4D8A
:100B30006D6805F00C0121B1042905D0082923D1E5
:100B400005E0294D056022E0274D05601FE0254D99
:100B50006D6805F47012234D6D6805F4803402252C
:100B600005EB92421CB9214D554305600BE01D4D2C
:100B70006D6805F400351DB11C4D5543056002E05C
:100B8000194D5543056002E0174D056000BF00BFD9
:100B9000144D6D6805F0F0010909154D6B5C056891
:100BA000DD4045600F4D6D6805F4E061090A104DA8
:100BB0006B5C4568DD4085600A4D6D6805F46051E9
:100BC000C90A0B4D6B5C4568DD40C560054D6D681D
:100BD00005F44041890B074D6B5CC568B5FBF3F527
:100BE000056130BD0010024000127A0000093D008E
:100BF000500000206000002010B5014600220023B4
:100C000000204A11012A02D1094C236806E0022A79
:100C100002D1074C236A01E0054C636A01F01F0210
:100C2000012494401C400CB1012000E0002010BDC4
:100C3000001002400248406800F00C0070470000BD
:100C40000010024001460020034A506820F0F000E6
:100C500008435060704700000010024011490968C5
:100C600021F480310F4A11601146096821F4802176
:100C70001160B0F5803F03D0B0F5802F0ED106E0B3
:100C80000849096841F48031064A116007E00549C6
:100C9000096841F4A021034A116000E000BF00BFD1
:100CA000704700000010024001460020034A5068CF
:100CB00020F4E060084350607047000000100240DC
:100CC00001460020034A506820F4605040EAC10009
:100CD00050607047001002400149086670470000EC
:100CE0000000424202460020044B586820F47C1069
:100CF00042EA01031843014B58607047001002405C
:100D000001460020034A506820F003000843506069
:100D1000704700000010024038B500200090002409
:100D2000002500BF3120FFF767FF05460098401CF3
:100D300000900098B0F5A06F01D0002DF2D03120C6
:100D4000FFF75AFF08B1012400E00024204638BD17
:100D5000704710B500F002F810BD00000CB500207F
:100D6000019000903348006840F4803031490860B9
:100D700000BF3048006800F4003000900198401C2B
:100D80000190009818B90198B0F5A06FF1D12948E9
:100D9000006800F4003010B10120009001E0002054
:100DA00000900098012843D12348006840F01000CB
:100DB000214908600846006820F0030008600846E2
:100DC000006840F0020008601A484068194948600D
:100DD0000846406848600846406840F480604860C3
:100DE0000846406820F47C1048600846406840F49B
:100DF000E81048600846006840F08070086000BF56
:100E00000C48006800F000700028F9D009484068DC
:100E100020F00300074948600846406840F002009F
:100E2000486000BF0348406800F00C000828F9D172
:100E30000CBD0000001002400020024010B5044C20
:100E4000A06818B10020D4E90221904710BD00002D
:100E50007C05002010B5002100200022214B5B689A
:100E600003F00C0121B1042906D0082928D107E09C
:100E70001D4B1E4C236027E01B4B1C4C236023E0C2
:100E8000184B5B6803F47010164B5B6803F48032F8
:100E9000022303EB904022B9154B4343134C2360CC
:100EA0000DE0104B5B6803F4003323B1104B434358
:100EB0000E4C236003E00C4B43430C4C236003E0D7
:100EC000094B0A4C236000BF00BF064B5B68C3F3AD
:100ED0000313084CE15C054B1B68CB40034C2360BB
:100EE00010BD00000010024000127A003C000020FB
:100EF00000093D004000002010B51348006840F094
:100F000001001149086008464068104908400E4930
:100F10004860084600680E4908400B4908600846CA
:100F2000006820F4802008600846406820F4FE0035
:100F300048604FF41F008860FFF70BFF4FF0006020
:100F40000449086010BD0000001002400000FFF8D6
:100F5000FFFFF6FE08ED00E021B1028842F08002BA
:100F6000028004E002884FF67F731A4002807047C7
:100F700021B1028842F00102028004E002884FF6AB
:100F8000FE731A40028070470146888F7047014601
:100F9000888C704770B5002400220023058C4FF622
:100FA000FF6635400584028C8388848B4FF68F75ED
:100FB0002C404FF6FC752C400D882C434FF6FF5506
:100FC0002A400D894FF6FF7606EA05252A434D880B
:100FD00006EA05252A43154DA84202D0144DA84221
:100FE0001DD14FF2FF752A404D894FF6FF7606EA74
:100FF00005252A434FF6FF352A408D8806EA052548
:101000002A434EF6FF752B404DF6FF752B408D8918
:1010100006EA05152B43CD8906EA05152B43838087
:101020008483CD888587028470BD0000002C014038
:10103000003401400A460021818B4FF6F7731940B6
:101040001143818370478187704700000022028826
:101050001D4B98420ED01D4B98420BD0B0F1804FE3
:1010600008D01B4B984205D01A4B984202D01A4B1D
:10107000984204D14FF68F731A404B881A43174B8E
:10108000984207D0164B984204D04FF6FF431A40BF
:10109000CB881A4302808B8883850B8803850A4B93
:1010A00098420BD0094B984208D00E4B984205D07D
:1010B0000D4B984202D00D4B984201D10B7A03861A
:1010C0000123838270470000002C0140003401405E
:1010D0000004004000080040000C004000100040E8
:1010E000001400400040014000440140004801401D
:1010F000F8B5164C40F22551154800F044F818B3E5
:10110000134800F0FBF8C0B20090B4F81454681C07
:10111000C0F30906B4F81604B04207D09DF80010D9
:1011200004F114004155A4F8146404E0B4F8180460
:10113000401CA4F81804E06828B101226946002088
:10114000D4E90373B84700BFF8BD00008C05002048
:101150000038014021B1828942F40052828104E0CA
:1011600082894DF6FF731A40828170470246002043
:10117000B1F5007F00D100BF13880B400BB10120F7
:1011800000E00020704770B50246002400230025CF
:10119000002040F66A16B14200D100BFC1F34215EB
:1011A00001F01F03012606FA03F3012D02D19689EF
:1011B000334006E0022D02D1168A334001E0968AC0
:1011C00033400C12012606FA04F41688344013B199
:1011D0000CB1012000E0002070BDF0B503460024F2
:1011E00000260025002040F66A17B94200D100BF52
:1011F0001846C1F3421401F01F06012707FA06F54D
:10120000012C01D10C3004E0022C01D1103000E09F
:1012100014301AB107682F43076002E00768AF4334
:101220000760F0BD2DE9F04786B005460E46002464
:10123000A24600BFA1460027B08900B100BF2F46DB
:101240002C8A4CF6FF700440F08804432C82AC8951
:101250004EF6F3100440B088318908437189084381
:101260000443AC81AC8A4FF6FF400440B08904438C
:10127000AC8201A8FFF756FC1F48874202D1DDF877
:1012800010A001E0DDF80CA0A88900F4004040B1F6
:101290000AEBCA0000EB0A1031684900B0FBF1F814
:1012A00007E00AEBCA0000EB0A1031688900B0FBC6
:1012B000F1F86420B8FBF0F004012009642101FB7F
:1012C0001089A88900F4004040B1322000EBC90029
:1012D000B0FBF1F000F00700044308E0322000EB1F
:1012E00009106421B0FBF1F000F00F0004432C81E1
:1012F00006B0BDE8F087000000380140014688884C
:10130000C0F308007047C1F308028280704700BF35
:10131000FEE7000010B50446034804702146002093
:1013200001F0C8FB10BD00000900002010B586B018
:101330002948007808B106B010BD012148F28000AC
:10134000FFF7E0FB4FF48070ADF8140000208DF83B
:10135000170005A92148FFF796FA4FF40040FFF760
:10136000A5FB002000908DF804008DF805004FF4D7
:10137000602002900020039001208DF81000694643
:101380001748FFF73DF90523012206211448FFF70E
:101390005FF901211248FFF706F91148FFF7B4F988
:1013A0006FF07F4400E0641E0D48FFF71EF908B19E
:1013B000002CF8D10A48FFF7B7F96FF07F4400E03E
:1013C000641E0748FFF7FAF808B1002CF8D1012095
:1013D0000149087000BFAEE700000020001C01407A
:1013E000003C014070B506460D4606B915B94FF0F0
:1013F000FF3070BD06EB86000F4901EB80042078BA
:1014000010B16FF00100F4E7FFF790FF0B48606048
:1014100006202072686808B1686801E040F6E44080
:10142000E060287A08B1287A00E0012020740120C9
:1014300020700020DDE70000F8040020003C01409F
:101440002DE9F04706460F4606B91FB94FF0FF30A9
:10145000BDE8F08706EB86001D4901EB800420788B
:1014600010B96FF00100F3E70025A9461BE0012148
:101470006068FFF74EF9DFF85CA006E0AAF1010012
:10148000B0F1000A01D1C01EE2E702216068FFF757
:10149000A3F80028F2D06068FFF79AF8054409F134
:1014A000010000F0FF09207C4845E0DC207CB5FB12
:1014B000F0F5E068684340F6FF71B0FBF1F8B8F56D
:1014C000803F01D34FF6FF78A7F800800020BFE7E8
:1014D000F8040020A0860100014800787047000051
:1014E000080000200A480078012806D0022806D00B
:1014F000032806D0042808D105E006A0704707A0FD
:10150000FCE708A0FAE709A0F8E70BA0F6E700005F
:1015100008000020484947485F5400004C4F575F7F
:10152000540000004C4F575F4C00000053454E5391
:101530004F522045525200004E4F524D414C000038
:101540000A480078012806D0022806D0032806D0D1
:10155000042808D105E006A0704708A0FCE70AA00F
:10156000FAE70CA0F8E70FA0F6E70000080000205B
:10157000484947485F54454D500000004C4F575F65
:1015800054454D50000000004C4F575F4C494748B0
:101590005400000053454E534F525F4641554C5442
:1015A000000000004E4F524D414C000010B500208D
:1015B0000A4908700A4908700A490880FFF7AAFE1C
:1015C0000949002001F0C0F904460CB1204610BDC5
:1015D0000649022001F0B8F9F9E7000008000020F0
:1015E000090000200A0000205D380008613800086A
:1015F00010B500F069FB012808D10549097809B93F
:10160000012100E000210846FFF784FE10BD000024
:1016100009000020042001490870704708000020DC
:1016200003480078042802D100200149087070475F
:101630000800002070B52A480078042801D104244D
:1016400014E000F051F80546B5F900001E2801DD50
:1016500001240BE0B5F900000A2801DA022405E0B4
:10166000E878142801D2032400E000241C48007804
:1016700084420FD000F028FB50B9012C03D1012087
:10168000FFF748FE04E0022C02D10020FFF742FEE3
:101690001348047013480088401C1249088008460B
:1016A0000088642801D3002008800D48007890B19C
:1016B0000B48007804280ED000F016FB58B90948F2
:1016C0000088322801D2012000E0002001460220DB
:1016D00001F0F0F903E00021022001F0EBF970BD08
:1016E000080000200A000020004870470C0000207D
:1016F00010B50020104908808870C8700F49087024
:101700000F4908700F4908800F49087000F0AAFCC3
:1017100004460CB1204610BD0C490020FFF762FEC4
:1017200004460CB12046F6E7012004490870FFF793
:1017300071FF0020EFE700000C00002010000020E7
:10174000110000201200002014000020683800085A
:101750003EB500200290002433480088401C3249E6
:10176000088008460088C82800D23EBD00202E49C7
:101770000880694601A800F085FC70B9BDF9040035
:1017800010F1140F07DBBDF904003C2803DC9DF8C1
:101790000000642802D9012400E00124BCB12348E0
:1017A0000078401C2149087008460078052802D2BC
:1017B0001F48007800BB00201C4908701D480078B5
:1017C000D0B901201B490870FFF724FF14E0002066
:1017D00016490870BDF90400174908809DF80000FB
:1017E00088700120124908701248007820B100204A
:1017F00010490870FFF714FF02A90020FFF720FE30
:1018000000B1B2E7BDF808006421484340F6E44166
:10181000B0FBF1F00849C8700846C078642801D9C7
:101820006420C87000BFA0E7120000201400002050
:1018300011000020100000200C00002010B5002036
:1018400001F01CFC04460CB1204610BD00201949D3
:1018500008700023184A0A21184601F02BFC0446A0
:101860000CB12046F1E700F035FA00F055F80446D7
:101870000CB12046E9E7FFF799FE04460CB120467B
:10188000E3E7FFF735FF04460CB12046DDE700F043
:101890004FFA00F08FF80949012001F055F804468D
:1018A0000CB12046D1E74FF47A71002001F070FDB1
:1018B0000020CAE707000020251D0008593800084D
:1018C0001448007800F0010038B11248007800F0A8
:1018D000FE0010490870012070470E48007800F0A3
:1018E000020038B10B48007800F0FD00094908708B
:1018F0000220F1E70748007800F0040038B10548FD
:10190000007800F0FB00034908700320E4E70020A2
:10191000E2E700001800002070B5002421E000205C
:1019200004EB4401124A02F8110004EB440102EBFB
:101930004101487004EB440102EB4101488004EB93
:10194000440102EB410108710A4A52F824100A4A84
:10195000105D00F0F9FF05460DB1284670BD601C12
:10196000C4B2032CDBD300200449087000BFF5E7A4
:10197000640400201C0000207438000818000020B7
:1019800038B500240CE00849085D694601F06CF8A0
:1019900020B99DF80010204601F01CF9601CC4B26B
:1019A000032CF0D338BD00007438000810B500F0E7
:1019B0008BFC10BD10B500F09FFC04460CB9012053
:1019C00000E000200549087000200549088005490D
:1019D000087005490870204610BD00003000002046
:1019E000320000203400002035000020014800783B
:1019F00070470000300000202DE9F0415648008873
:101A0000401C5549088008460088B0F5FA7F03D38A
:101A10000020088000F0FAFB5048007808B9BDE8C3
:101A2000F0814F480088401C4D49088008460088D6
:101A3000142800D2F3E7002049490880FFF754FE3C
:101A40000646FFF749FD074647B14648007808B902
:101A5000012000E000204349087002E001204149D4
:101A6000087041A1434800F0E5FA4249002000F027
:101A7000DFFD054640A13F4800F0DCFA0446B6F918
:101A800000103C4A101900F099FA204484B23949F8
:101A900008193AA100F0CEFA204484B2B178354A50
:101AA000101900F08BFA204484B23249081935A18C
:101AB00000F0C0FA25B92F49012000F0B9FD054614
:101AC00031A12C4800F0B6FA0446F178294A1019E1
:101AD00000F074FA204484B22649081929A100F0C4
:101AE000A9FA25B92349022000F0A2FD054637B125
:101AF0001C48007818B900201E4908701DE023A179
:101B00001C4800F097FA044600F0C2F880461949D4
:101B10000819414600F08EFA204484B2154908198C
:101B20001BA100F087FA204484B2FFF7DBFC80465B
:101B300010490819414600F07DFA25B90D490320E6
:101B400000F076FD054625B112480078401C114989
:101B5000087000BF63E7000036000020300000205E
:101B60003200002034000020454E56204D4F4E4993
:101B7000544F5200D6040020543A00004320483A03
:101B800000000000250000004C3A00004D3A000023
:101B900020413A0035000020002400BF00BF3B4830
:101BA00000780028FBD000203849087001F0DEFBE7
:101BB000FFF7E6FEFFF784FE054614E0012D04D092
:101BC000022D05D0032D09D105E000F093F806E0C1
:101BD000FFF70EFD03E000F099F800E000BF00BF42
:101BE000FFF76EFE0546002DE8D1FFF7B1FDFFF7C8
:101BF00021FDFFF701FF00F0C1F8601C84B2FFF780
:101C0000F5FE58B96420B4FBF0F000F0010080F05C
:101C100001063146012000F04DFF32E0FFF7C6FE1D
:101C2000A8B1FFF7C3FE07460F20B4FBF0F678001B
:101C3000B04207DD06F0010080F00101012000F054
:101C400039FF03E00021012000F034FF19E000F02B
:101C50008FF858B11920B4FBF0F000F0010080F0CB
:101C600001063146012000F025FF0AE03220B4FBD6
:101C7000F0F000F0010080F001063146012000F094
:101C800019FFC82C8AD3002488E700000700002031
:101C90000548007808B105A070470648007808B9E3
:101CA00005A0F9E706A0F7E7290000204D555445A7
:101CB00044000000280000204155544F000000005F
:101CC0004D414E55414C00000148007870470000DE
:101CD000280000200020024908700249087070475F
:101CE00028000020290000200148007870470000EB
:101CF000290000200448007808B9012000E00020F5
:101D0000014908707047000028000020044800784E
:101D100008B9012000E00020014908707047000068
:101D2000290000200122014B1A7070470700002093
:101D300010B50A49002001F045FA04460CB901200B
:101D400000E0002006490870002006490880064986
:101D5000087006490870204610BD0000843800084D
:101D60002A0000202C0000202E0000202F00002040
:101D700001480078704700002F0000202DE9FF4740
:101D80002E48007808B9BDE8FF872D480088401C20
:101D90002B49088008460088B0F5FA7F00D2F2E7A8
:101DA000002027490880FFF79FFC0546FFF78CFFBE
:101DB00008B924A000E025A08146FFF7C1FB8046BA
:101DC000E878A978CDE90298CDE90010B5F900309E
:101DD00020A260212E48FEF723FA0446002C01DDE4
:101DE000602C05DB2B480078401C2A49087019E05C
:101DF00000270FE0A2B22649002001F027FA06468C
:101E0000A64205D100202349087023490870BAE78B
:101E1000781CC7B2022FEDD91E480078401C1D491E
:101E2000087000BF1B480078032805D30320194918
:101E3000087001201849087000BFA4E72A0000209C
:101E40002C0000204155544F000000004D414E55DC
:101E5000414C00007B2274656D70223A25642C226F
:101E600068756D69223A25752C226C696768742241
:101E70003A25752C226D6F6465223A222573222C37
:101E800022616C61726D223A222573227D0D0A0057
:101E9000760400202E0000202F00002010B5102016
:101EA000FEF74AFC0220FEF755FC4FF48030FEF7A7
:101EB000D5FEFEF731FF012800D010BD4FF4E01130
:101EC0004FF48030FEF70EFF0020FEF7BBFE4FF40C
:101ED0008060FEF7E9FE0020FEF7F2FE0120FEF72B
:101EE000FBFE00BF3920FEF787FE0028FAD0022053
:101EF000FEF706FF00BFFEF79DFE0828FBD1FEF7A8
:101F0000A9FF00BFD9E700000EB501210846FEF782
:101F1000E9FD4720ADF800000020ADF802004FF6C3
:101F2000FF70ADF804000020ADF8060069464FF0E0
:101F30008040FFF78BF801218807FFF719F801208F
:101F4000014908700EBD00003900002008B50121CC
:101F50000802FEF7D7FD4FF40060ADF800004820FE
:101F60008DF8030003208DF8020069460148FEF752
:101F70008AFC08BD002001402DE9F8430746884649
:101F80001446002500BF6946062000F035FD0646D0
:101F900016B13046BDE8F8839DF80000B84203D181
:101FA00004B125600020F5E7454502D36FF002003B
:101FB000F0E7012001F03CF86D1CE4E72DE9FC415D
:101FC00007460D460024384600F042F80646002D2C
:101FD00001DA684200E02846804600BF0A20B8FBCC
:101FE000F0F100FB118030302146621CD4B20DF8B4
:101FF00001000A20B8FBF0F8B8F1000F01D0072C5F
:10200000ECD3002D05DA2D222046611CCCB20DF850
:10201000002007E0601EC4B21DF804203046711C89
:102020008EB23A540CB11E2EF4D30020B85530466F
:10203000BDE8FC810246002003E00B5C1354431C06
:1020400098B20B5C0BB11E28F7D3002313547047D2
:102050000146002001E0421C90B20A5C002AFAD13D
:102060007047000010B50649062000F06DFC0446DC
:102070000CB1204610BD0021062000F03DFDF9E71F
:10208000203400082DE9FE4306460F46002000904C
:1020900006B11FB94FF0FF30BDE8FE8301210620D5
:1020A00000F02AFD04460CB12046F5E70021062089
:1020B00000F04AFD04460CB12046EDE744F62060EE
:1020C00000F0B6FF0121062000F03EFD1E2000F0CA
:1020D000AFFF0021062000F00FFD04460CB12046A2
:1020E000DAE700225A211046FFF746FF04460CB1FA
:1020F0002046D1E700225A210120FFF73DFF044688
:102100000CB12046C8E700223C211046FFF734FFFF
:1021100004460CB12046BFE700252BE0002001A9B2
:102120004855804621E000223C210120FFF724FF92
:1021300004460CB12046AFE76A465A210020FFF75B
:102140001BFF04460CB12046A6E701A8405D4006EF
:10215000000E01A948550098282804D901A8405D1F
:1021600040F00100485508F10108B8F1080FDAD332
:10217000681CC5B2052DD1D39DF804009DF805104B
:1021800008449DF8061008449DF807100844C0B2A2
:102190009DF80810884202D06FF001007CE79DF89E
:1021A000040038709DF806003080002074E70000BD
:1021B00070B540F21F3340F2DF120021084600F0F4
:1021C000E2FD05460DB1284670BD002405E0002063
:1021D0000D4921F81400601C84B2B4F5F07FF6D3E9
:1021E00000260BE04FF4F0720749002000F0BAFE21
:1021F00005460DB12846E7E7701C86B2B6F5487F64
:10220000F0D30020E0E700006400002010B514A027
:1022100000F05EFD00F058F8044600F035FD15A012
:1022200000F056FD1548007800F02EFD14A000F0D7
:102230004FFD1448007800F027FD11A000F048FD84
:102240001148007800F020FD10A000F041FD124878
:10225000007800F019FD11A000F03AFD10BD00005B
:102260005B4C43445D206469616720636F64653D36
:10227000000000002069643D000000000100002013
:1022800020000000020000200300002020636F6C8B
:102290006D6F643D00000000040000202028303DE8
:1022A0006F6B20313D6E6F2D7265737020323D77FC
:1022B000726F6E672D696420333D7265672D72659C
:1022C0006164290D0A0000000848007808B1012067
:1022D00070470748007808B90220F9E705480078F8
:1022E000552801D00320F3E70020F1E70500002086
:1022F00006000020040000207CB500200190009022
:1023000045A000F0E5FC002000F0DAFD04460CB129
:1023100020467CBD484800F08BFE4FF480710020C1
:1023200000F0FAFD444800F083FE01A800F0C0F878
:102330002D21424800F09CFD04460CB12046E8E700
:1023400000F06AFD04460CB12046E2E718213C4843
:1023500000F08EFD04460CB12046DAE739A000F00B
:10236000B7FC4FF48851002000F0D6FD04460CB1B4
:102370002046CEE7304800F05BFE4FF420510020AD
:1023800000F0CAFD04460CB12046C2E700214FF41C
:10239000585000F05DFD04460CB12046B9E769468F
:1023A0004FF4406000F0CEFC68B99DF800002C4965
:1023B00008702CA000F08CFC9DF8000000F064FC7C
:1023C0002FA000F085FC3248007828B1314800F099
:1023D0007FFC6FF001009CE7FFF7EAFE04460CB1BA
:1023E000204696E74FF42451002000F095FD044666
:1023F0000CB120468DE744F6206000F019FE26A0BF
:1024000000F066FCFFF760FF054600F03DFC1FA0F2
:1024100000F05EFC00207CE70D0A5B4C43445D202D
:102420004E54333535313020696E697420737461D0
:1024300072740D0A00000000C0D401003437000897
:10244000E83700085B4C43445D20696E6974207373
:102450006571207772697474656E0D0A0000000062
:10246000040000205B4C43445D20524444434F4CE5
:102470004D4F4428307830433030293D0000000073
:102480002028657870656374203535290D0A0000B1
:1024900005000020D43800085B4C43445D20696E81
:1024A000697420646F6E6520636F64653D00000091
:1024B0003EB5044600200290019000900CB9401EE9
:1024C0003EBD02A94FF45A4000F03CFC05460DB158
:1024D0002846F5E701A94FF45B4000F033FC0546C0
:1024E0000DB12846ECE769464FF45C4000F02AFC49
:1024F00005460DB12846E3E79DF80800304908700D
:102500009DF804002F4908709DF800002E490870BE
:102510009DF800009DF8041040EA012020809DF8FD
:1025200008009DF8041088420ED19DF804009DF823
:102530000010884208D19DF8080018B19DF80800E5
:10254000FF2801D1012000E00020204908702088E8
:1025500045F21051884203D02088B0F5004F01D1D8
:10256000012000E000201A4908701AA000F0B0FB1A
:102570009DF8080000F088FB1BA000F0A9FB9DF867
:10258000040000F081FB18A000F0A2FB9DF8000001
:1025900000F07AFB15A000F09BFB208800F074FB94
:1025A0000A49097809B113A105E00949097809B177
:1025B00015A100E018A1084600F08AFB00207FE783
:1025C0000100002002000020030000200500002080
:1025D000060000205B4C43445D2049442844412FC1
:1025E00044422F4443293D0020000000202D3E207E
:1025F00069643D0020284E4F20524553504F4E53A2
:102600004521290D0A00000020284E54333535316C
:1026100030290D0A000000002028756E7265636F76
:10262000676E697A6564204944290D0A000000003C
:102630002DE9FF5F07460D46042F00D225B94FF064
:10264000FF3004B0BDE8F09F4FEA471900245BE07B
:102650002878039000200190039800B16D1C039826
:1026600000F044FB2A4901EB00100290002626E00E
:10267000701000904FF0000A1CE05246009902983A
:1026800000F04AFB10B14FF6FF7000E000208346D7
:102690000198411C89B201911E4921F810B001989E
:1026A000411C89B201911B4921F810B00AF10100C7
:1026B00000F0FF0ABAF1080FDFD3701CC6B2202E5B
:1026C000D6D309F11F018BB2102101EB0411491E71
:1026D0008AB24FF6FF7101EA0410494600F053FB3D
:1026E0008046B8F1000F01D04046AAE74FF40072CF
:1026F0000849002000F036FC8046B8F1000F01D0F8
:1027000040469EE7601C84B21E2CA1D3002098E7AF
:10271000243400086400002000B59DB001210802A7
:10272000FEF7D0F90020169017900F201890002087
:10273000199002201A901B90C0061C901C2216A90A
:102740000FA8FDF72DFE06200090002001900290BA
:1027500010200390002004900590069007900890A8
:102760004FF48050099000200A904FF480400B9065
:1027700000200C9016A80D900FA80E906846FEF74A
:102780000FF801210620FDF7F1FF1DB000BD00008C
:1027900008B501210420FEF7B5F91020ADF80000BE
:1027A0008DF8030003208DF8020069460348FEF708
:1027B0006AF810210148FEF703F908BD000801403E
:1027C00038B504462089ADF8000003208DF80200DA
:1027D000A07A012803D110208DF803000CE0E07AE4
:1027E000012801D1482005E0E07A022801D1282003
:1027F00000E004208DF8030069466068FEF743F8A6
:1028000038BD000008B501214FF4B070FEF77AF929
:1028100018208DF8030003208DF80200ADF80000A9
:1028200069461548FEF72FF83020ADF800006946DC
:102830001148FEF728F84FF4E060ADF80000694653
:102840000D48FEF720F84FF44040ADF8000069460F
:102850000948FEF718F84FF68070ADF80000694699
:102860000648FEF710F841F20100ADF80000694695
:102870000348FEF708F808BD0014014000180140A5
:102880000020014010B500F039F8FFF781FF00F09B
:1028900005F800F019F8FFF7B5FF10BD08B50121E4
:1028A0004020FEF72FF91C20ADF8000048208DF8DD
:1028B000030003208DF8020069460248FDF7E3FF9C
:1028C00008BD00000018014008B501210820FEF7EE
:1028D00019F90120ADF8000010208DF80300032045
:1028E0008DF8020069460448FDF7CDFF012102483A
:1028F000FEF768F808BD0000000C014008B5012192
:102900004820FEF7FFF82020ADF8000010208DF8D9
:10291000030003208DF8020069460948FDF7B3FF64
:1029200020210748FEF74EF82020ADF80000694648
:102930000448FDF7A8FF20210248FEF743F808BD30
:10294000000C0140001801402DE9F04105460E46FB
:10295000072D00D21EB94FF0FF30BDE8F0812448AA
:1029600000EB0514207810B16FF00100F5E7214865
:1029700050F8350060601F4800EBC500808820815A
:102980001C4800EBC500807960703078A0727078C8
:10299000E072F0782073022D0CD0052D02D0062DA8
:1029A0000DD108E001210420FEF7ACF82046FFF726
:1029B00007FF08E007E02046FFF702FF03E020469C
:1029C000FFF7FEFE00BF00BFA07A01280CD160789F
:1029D00050B9207B08B9012000E0002007463946A5
:1029E000284600F0B1F800BF012020700020B4E7B5
:1029F0000C0500208C3800082DE9F04106460D46F4
:102A0000072E00D21DB94FF0FF30BDE8F081144809
:102A100000EB0614207810B96FF00100F5E760783C
:102A200048B11048FEF7B0FA08B1012000E00020DC
:102A300028700020E9E7A07A012804D12189606884
:102A4000FDF7B5FF03E021896068FDF7A7FF0746A2
:102A5000012F00D100E0002028700020D5E7000001
:102A60000C05002000080040F8B504460D46072C70
:102A700000D215B94FF0FF30F8BD0D4800EB041639
:102A8000307810B96FF00100F6E769462046FFF78D
:102A9000B3FF07460FB13846EEE7307B9DF80010D4
:102AA000884201D1012000E0002028700020E3E7E7
:102AB0000C0500202DE9F04105460E46072D03D3F5
:102AC0004FF0FF30BDE8F0810A4800EB0514207894
:102AD00010B96FF00100F5E70EB1207B04E0207B18
:102AE00008B9012000E0002007463946284600F0DA
:102AF0002BF8E7E70C05002070B506460D46072EBB
:102B000002D34FF0FF3070BD25B1012D02D04FF040
:102B1000FF30F8E70B4800EB0614207810B96FF08F
:102B20000100F0E7607810B16FF00100EBE7A07AE8
:102B3000A84201D10020E6E7A5722046FFF740FE3B
:102B40000020E0E70C05002070B505460E46072D75
:102B500002D34FF0FF3070BD134800EB051420780E
:102B600010B96FF00100F6E7607850B1012E01D185
:102B7000FA2000E0002001460C48FEF764FA00202D
:102B8000E9E7A07A012802D06FF00100E3E7012E07
:102B900001D1012300E000231A4621896068FDF776
:102BA00013FF0020D7E700000C05002000080040BC
:102BB00010B5FFF773F900F07CF9FFF763FE00F042
:102BC000EDF9FEF7B3FBFFF7A7FD00F08BFBFFF776
:102BD000BDF910BD10B5024602EB4203284C04EBD0
:102BE0004300037833B1012B09D0022B18D0032BFB
:102BF00041D124E011B10123037043703EE059B18B
:102C000043785B1C43704378052B08D30223037081
:102C100000234380037102E00023037043702DE022
:102C200041B143885B1C43804388642B06D3012356
:102C3000037103E003230370012343701EE0A9B96D
:102C400043785B1C43704378052B13D303793BB95E
:102C500001239340DBB20B4C24782343094C2370AF
:102C60000023037043704380037103E00223037069
:102C70000023437002E00023037000BF00BF10BDBB
:102C800064040020180000201CB504460F4800EB27
:102C9000143000788DF800000C48C4F30321405C28
:102CA0008DF801000948C4F30311405C8DF802005F
:102CB00004F00F000549085C8DF8030000208DF832
:102CC0000400684600F004F81CBD00004838000805
:102CD00070B50446002501E0681C85B2605D0028DF
:102CE000FAD12A46214600F0B1FA70BD70B505460A
:102CF0000DB9002070BD29460648FDF747FB044684
:102D00000CB1207808B90020F4E70248201AC0B2BC
:102D1000F0E70000D436000810B50346082906D2B3
:102D2000985CC1F10704204100F0010010BD02F1E0
:102D30000800185CA1F10804C4F10704204100F068
:102D40000100F3E7F8B505460E460020009029463D
:102D500000F0E2F804460CB12046F8BD052000F072
:102D600067F96946002000F0C1F804460CB120461E
:102D7000F3E7BDF80000C0B2BDF8001040EA212022
:102D800030700020E9E72DE9F04105460E46174670
:102D9000984629124FF4285000F05AF804462CB9EE
:102DA000E9B242F6012000F053F804462CB939127A
:102DB00042F6022000F04CF804462CB9F9B242F673
:102DC000032000F045F804462CB931124FF42C5082
:102DD00000F03EF804462CB9F1B242F6013000F0A2
:102DE00037F8044634B94FEA282142F6023000F0A1
:102DF0002FF8044634B908F0FF0142F6033000F022
:102E000027F804462CB94FF43051002000F084F824
:102E100004462046BDE8F08170B5D12512E00024BB
:102E20000CE00A4A115D44EA052290B200F010F865
:102E300006460EB1304670BD601C84B2342CF0D30F
:102E4000681C85B2D62DEAD90020F4E700370008C7
:102E500070B504460E462146002000F05DF8054698
:102E60000DB1284670BD3146002000F067F8F9E743
:102E70002DE9F04105460F4600240DE005EB8402E4
:102E8000518835F82400FFF7E3FF064616B13046B7
:102E9000BDE8F081601C84B2BC42EFDB0020F7E7A4
:102EA00010B5FFF785FEFEF7C9FCFEF775FE0020A2
:102EB00010BD10B54FF4A060FDF7ECFD10BD000093
:102EC00070B5044614B14FF0FF3070BD06480519C7
:102ED000287810B16FF00100F7E7FFF71DFC012023
:102EE00028700020F1E7000038000020024602B9F7
:102EF00011B94FF0FF3070470548805C10B96FF092
:102F00000100F8E70348008808800020F3E700008C
:102F1000380000200008006C024612B14FF0FF306C
:102F200070470548805C10B96FF00100F8E74FF07A
:102F3000D84001800020F3E738000020024612B19B
:102F40004FF0FF3070470548805C10B96FF001000A
:102F5000F8E7034801800020F4E700003800002073
:102F60000008006C30B5034603B911B94FF0FF30CB
:102F700030BD0848C05C10B96FF00100F8E70020D0
:102F800004E031F81040044D2C80401C9042F8D3EE
:102F90000020EDE7380000200008006C00B589B083
:102FA00001210820FDF7AEFD4FF48070ADF8200040
:102FB00018208DF8230003208DF8220008A91A4854
:102FC000FDF761FC01210420FDF78CFD4720ADF8E1
:102FD00014000020ADF8160040F2F310ADF8180010
:102FE0000020ADF81A0005A91048FEF72FF8602060
:102FF000ADF804000120ADF806000020ADF80A008D
:10300000ADF80C0001A90948FDF7C4FF08210748E5
:10301000FEF710F801210548FDF79EFF0121034846
:10302000FDF7A6FF09B000BD000C014000080040FC
:1030300070B504461048007808B9FEF765FF16E041
:103040004EF66020844200D900E0A0B206464FF060
:103050008040FDF79CFF054600BF4FF08040FDF724
:1030600096FF401B80B2B042F7DBA41B00BF002CD0
:10307000E6D1002070BD00003900002070B5044684
:1030800014B14FF0FF3070BD084800EB04152878EC
:1030900010B16FF00100F6E70548007808B9FEF7B7
:1030A00033FF012028700020EDE700007C050020A0
:1030B000390000202DE9F04705460C4617469C468E
:1030C00005B91CB94FF0FF30BDE8F087274800EB89
:1030D0000511087810B96FF00100F5E7487810B1D4
:1030E0006FF00100F0E74C608F60C1F80CC0204821
:1030F00004FB00F2B2F1807F02D34FF0FF30E3E730
:103100001346B3F1807F01D3012026E023F07F40F6
:10311000401E4FF0E026706170170F2600280CDA71
:103120004FEA06784FEA186ADFF8488000F00F0986
:10313000A9F1040908F809A007E04FEA06784FEA68
:103140001869DFF8348008F8009000BF00204FF0C5
:10315000E026B06107203061002010B16FF003005D
:10316000B2E7012048700020AEE700007C05002097
:103170004019010018ED00E000E400E0014609B943
:10318000014870470020FCE700380140014609B9BA
:10319000252070470020FCE738B505460C46284638
:1031A000FFF7F4FFC0B28DF8000002208DF8010097
:1031B00000208DF802008DF803406846FDF732FCD0
:1031C00038BD00002DE9F04106460F4606B91FB98B
:1031D0004FF0FF30BDE8F081C6EBC60000EB0620E3
:1031E000194901EB8004207810B16FF00100F1E77C
:1031F0003046FFF7C3FF054615B94FF0FF30E9E74A
:1032000000F070F80020A4F81404A4F81604A4F840
:103210001804E060206108212846FDF7A7FF284632
:10322000FEF76CF8012240F225512846FDF7D5FF44
:1032300001213046FFF7B0FF65603868A0600120CB
:1032400020700020C6E700008C0500202DE9F04723
:1032500005460E46174605B91EB94FF0FF30BDE8CA
:10326000F087C5EBC50000EB05201C4901EB80048D
:10327000207810B96FF00100F1E74FF0000818E076
:10328000DFF85C9006E0A9F10100B0F1000901D17E
:10329000C01EE4E780216068FDF768FF0028F2D0D7
:1032A00016F808106068FEF72EF808F101001FFA02
:1032B00080F8B845E4DBDFF8288006E0A8F10100DB
:1032C000B0F1000801D1C01EC9E740216068FDF7D8
:1032D0004DFF0028F2D03846C1E700008C050020E1
:1032E000400D030000B585B0012144F20400FDF754
:1032F00009FC4FF40070ADF8100018208DF8130091
:1033000003208DF8120004A91648FDF7BCFA4FF40B
:103310008060ADF8100004208DF8130004A9114856
:10332000FDF7B1FA4FF4E13000900020ADF8040051
:10333000ADF80600ADF80800ADF80C000C20ADF8B3
:103340000A0069460848FDF76DFF012240F2255149
:103350000548FDF742FF01210348FDF7FBFE05B0DC
:1033600000BD0000000801400038014010B50446CF
:1033700014B14FF0FF3010BD0448005D10B96FF07C
:103380000100F8E7FDF730FB0020F4E73A000020E9
:103390002DE9F04106460F46002506B91FB94FF04A
:1033A000FF30BDE8F0811C4800EB060898F80000EB
:1033B00010B16FF00100F4E700240EE007EB870086
:1033C00041000120A040B1FBF0F505B90125B5F59C
:1033D000805F00D803E0601CC4B2072CEED300BFAE
:1033E000072C02D34FF0FF30DBE745F25550FDF7D5
:1033F0000FFB0A4911F81400FDF7FEFA691E88B2A6
:10340000FDF700FBFDF7F0FAFDF7E6FA012088F87A
:1034100000000020C5E700003A000020C438000882
:10342000000000010000000000000000000000009B
:10343000000000000000000000000000008080800C
:10344000808080800000000000000000000C0C0064
:1034500000000000000708101008070000F0080432
:103460000408F0000008081F00000000000404FC2D
:1034700004040000000E101010110E00000C1424A3
:1034800044840C00000C101111120C0000180404EC
:103490000488700000000304081F000000E02024DE
:1034A00024FC2400001F1011111010000098840447
:1034B00004887000000708111118000000F088044B
:1034C00004887000001C1010131C1000000000FC89
:1034D00000000000000E111010110E00003844848E
:1034E00084443800000708101008070000008C44CE
:1034F0004488F00000000003030000000000000CFE
:103500000C000000000000000106182000061860F2
:10351000800000000F100F0007180000008438C062
:10352000788478000000031C07000000043CC440BD
:1035300040E41C04101F1111110E000004FC0404CF
:1035400004887000030C101010101C00E018040414
:1035500004081000101F10101008070004FC0404D9
:103560000408F000101F11111710080004FC0404D7
:10357000C4041800101F11111710080004FC0400E7
:10358000C0000000030C1010101C0000E018040420
:1035900044784000101F100000101F1004FC8480AD
:1035A0008084FC040010101F10100000000404FCB4
:1035B00004040000000010101F101000030101019E
:1035C000FE000000101F11031418100004FC0480FA
:1035D000641C0400101F10000000000004FC040420
:1035E00004040C00101F1F001F1F100004FC00FC2F
:1035F00000FC0400101F0C0300101F1004FC04004A
:10360000E018FC000708101010080700F008040478
:103610000408F000101F101010100F0004FC84802C
:10362000808000000708101010080700F0182424FC
:103630001C0AF200101F111111110E0004FC0400ED
:10364000C0300C04000E111010101C00001C04846B
:10365000844438001810101F10101800000004FCDB
:1036600004000000101F100000101F1000F80404D8
:103670000404F800101E110000131C100000E01CD0
:10368000708000001F10001F00101F00C03CE000F1
:10369000E03CC0001018160101161810040C34C0CC
:1036A000C0340C04101C1300131C1000000004FC98
:1036B0000400000008101010131C1000041C648487
:1036C00004041800000000000000000001010101D6
:1036D00001010101202D2E30313233343536373897
:1036E000393A2F254142434445464748494A4B4CC5
:1036F0004D4E4F505152535455565758595A5F00DA
:1037000000330034003A004A005C008100A600E566
:1037100001130154018201CA02000201023402674E
:10372000028402A402B702CF02DE02F202FE0310FC
:103730000333036D00F0550001F0AA0002F05200BF
:1037400003F0080004F0010000B00D0001B00D000E
:1037500002B00D0000B6340001B6340002B63400E9
:1037600000B10D0001B10D0002B10D0000B7340031
:1037700001B7340002B7340000B2000001B200000B
:1037800002B2000000B8240001B8240002B82400EE
:1037900000BF010000B30F0001B30F0002B30F0020
:1037A00000B9340001B9340002B9340000B5080092
:1037B00001B5080002B5080000C2030000BA2400E9
:1037C00001BA240002BA240000BC000001BC780049
:1037D00002BC000000BD000001BD780002BD000079
:1037E00000BE000001BE640000F0550001F0AA0018
:1037F00002F0520003F0080004F0000000B1CC0019
:1038000001B1000000B6050000B7700001B77000FC
:1038100000B8010001B8030002B8030003B80300B8
:1038200000BC020001BC000002BC000000C9D000C6
:1038300001C9020002C9500003C9500004C9500068
:1038400000350000003A5500303132333435363718
:10385000383941424344454600010001000100015E
:10386000000100000100000000000000E40C000066
:103870000800000003040500010000000100000032
:103880000201010000C2010008000100000C01401B
:10389000200000000018014020000000000C014042
:1038A0000001010000180140100000000018014054
:1038B0000800000000080140010000000020014055
:1038C00000080000000001000200030004000500E1
:1038D000060000005B4C43445D204641494C3A20C1
:1038E0006E6F20726573706F6E7365206F6E2062ED
:1038F00075732028636865636B2046534D432074BD
:10390000696D696E67202F204353202F20646174F6
:1039100061206C696E6573202F2070616E656C206C
:10392000706F776572290D0A000000004C3900089D
:1039300000000020640000006C010008B03900089D
:1039400064000020A40F00008801000800000000AF
:103950000000000000000000000000000000000067
:103960000000000000000000773800087B380008E5
:103970007F38000800000000000000000000000088
:10398000000000000000000000A24A040000000047
:1039900000000000010203040607080900000000FF
:1039A00001020304010203040607080902040608D1
:04000005080001E10D
:00000001FF
