:020000040800F2
:10000000300C0020E1010008DB090008D3090008DA
:10001000D709000833070008C712000800000000D5
:10002000000000000000000000000000090D0008B2
:100030003707000800000000610A0008F50D0008FD
:10004000FB010008FB010008FB010008FB010008A0
:10005000FB010008FB010008FB010008FB01000890
:10006000FB010008FB010008FB010008FB01000880
:10007000FB010008FB010008FB010008FB01000870
:10008000FB010008FB010008FB010008FB01000860
:10009000FB010008FB010008FB010008FB01000850
:1000A000FB010008FB010008FB010008FB01000840
:1000B000FB010008FB010008FB010008FB01000830
:1000C000FB010008FB010008FB010008FB01000820
:1000D000FB010008A9100008FB010008FB01000853
:1000E000FB010008FB010008FB010008FB01000800
:1000F000FB010008FB010008FB010008FB010008F0
:10010000FB010008FB010008FB010008FB010008DF
:10011000FB010008FB010008FB010008FB010008CF
:10012000FB010008FB010008FB010008FB010008BF
:1001300000F002F800F045F80AA090E8000C8244B4
:100140008344AAF10107DA4501D100F03AF8AFF291
:10015000090EBAE80F0013F0010F18BFFB1A43F0A5
:100160000103184784300000A4300000103A24BF77
:1001700078C878C1FAD8520724BF30C830C144BF0C
:1001800004680C607047000000230024002500264E
:10019000103A28BF78C1FBD8520728BF30C148BFEA
:1001A0000B607047642900F0B580752900F0B280BB
:1001B000732900F0BA81002070471FB51FBD10B52C
:1001C00010BD00F0B6F91146FFF7F7FF02F088FB0B
:1001D00000F0D4F903B4FFF7F2FF03BC00F0DCF940
:1001E0000948804709480047FEE7FEE7FEE7FEE7CB
:1001F000FEE7FEE7FEE7FEE7FEE7FEE70448054907
:10020000054A064B70470000B10E00083101000896
:1002100030060020300C002030080020300800207C
:100220000FB47CB50C0009AA009001D02044401EF8
:10023000084B7B4469460190089800F044F9054654
:100240001CB10020694600F051F928467CBC5DF8DD
:1002500014FB0000C10200002DE9F0410E460446E7
:10026000002020622046E168884730B3252805D069
:10027000D4E901219047206A401CF2E7E16820465A
:1002800000278847050018D0A5F14100192802D899
:1002900020354FF400673246294620462760FFF795
:1002A00081FF40B1012804D0F61D26F0070608366C
:1002B000D8E7361DD6E72846DAE7206ABDE8F081A0
:1002C00070B50C460546012A05D02878800600D571
:1002D000EA69002302E0012305E05B1C934202D29D
:1002E000E05C0028F9D1A869E618C01AA861286A5C
:1002F000184428622846AFF3008004E0D5E90121C4
:1003000014F8010B9047B442F8D32846AFF30080AD
:1003100070BD00002DE9F0410646002410687529E3
:10032000314616A510D0AFF30080002802DA404213
:1003300013A507E031688A0701D512A502E0490735
:1003400004D511A5012401E0AFF3008000210A22A9
:1003500006F1240709E0B0FBF2FCB0FBF2F302FB6C
:100360001C00303078541846491C0028F3D123462D
:100370002A463046BDE8F04100F047B800000000D2
:100380002D0000002B00000020000000401ECAB21B
:1003900010F8011F8A4202D00029F9D100207047CD
:1003A00010B5203AC0F00B80B1E81850203AA0E810
:1003B0001850B1E81850A0E81850BFF4F5AF5FEA44
:1003C000027C24BFB1E81850A0E8185044BF18C9F7
:1003D00018C0BDE810405FEA827C24BF51F8043B9E
:1003E00040F8043B08BF7047D20728BF31F8023BF2
:1003F00048BF11F8012B28BF20F8023B48BF00F886
:10040000012B70477047704770472DE9F0470D4644
:1004100099469246044600F124080168880604D5EE
:10042000E06921F01001216000E00120A84201DD17
:10043000471B00E00027A1697A1902EB0900081A9E
:10044000A0612078C00602D42046AFF300800026C9
:1004500008E0D4E901211AF806009047206A401C00
:10046000761C20624E45F4DB2078C0060AD5204673
:10047000AFF3008006E0D4E9012130209047206AE4
:10048000401C2062381EA7F10107F4DC07E0D4E924
:10049000012118F805009047206A401C2062281EA0
:1004A000A5F10105F3DC2046AFF3008020780006BB
:1004B00002D50220BDE8F0870120FBE701694A1C54
:1004C00002610878704700B58FB0CDE90131002195
:1004D000059105497944CDE9031011466846FFF7B7
:1004E000BBFE0FB000BD0000E5FFFFFF0A6802F889
:1004F000010B0A607047D1E900239A4202D2531CD3
:100500000B601070704710B5436913B1AFF30080F2
:1005100001E0FFF7D5FE012010BD127800F12401A3
:100520000A7000224A700122EDE711684FF0FF3295
:10053000E9E7754600F02CF8AE46050069465346DB
:1005400020F00700854618B020B5FFF757FEBDE83C
:1005500020404FF000064FF000074FF000084FF02A
:10056000000B21F00701AC46ACE8C009ACE8C009BB
:10057000ACE8C009ACE8C0098D46704710B5044628
:10058000AFF300802046BDE81040FFF723BE000017
:1005900000487047CC05002001491820ABBEFEE79B
:1005A00026000200704721B1826842F00102826099
:1005B00003E0826822F00102826070470146002059
:1005C0008A6802F004020AB1012000E000207047AE
:1005D0000146C86C80B270470246002013680B4089
:1005E0000BB1012000E000207047014600208A681E
:1005F00002F008020AB1012000E00020704700006C
:1006000030B502460020002350680F4C20400D7981
:100610000C6844EA05242043506090680B4C20404D
:10062000D1E902542C434D7944EA450420439060BB
:10063000D06A20F470000C7C641EE4B2234340EACC
:100640000350D06230BD0000FFFEF0FFFDF7F1FF68
:10065000F0B504460D4600200021092D11DDE068AB
:10066000A5F10A0606EB4607072606FA07F18843B6
:10067000A5F10A0606EB460603FA06F10843E06018
:100680000CE0206905EB4507072606FA07F18843C9
:1006900005EB450603FA06F108432061072A0FDA45
:1006A000606B561E06EB86071F2606FA07F1884385
:1006B000561E06EB860605FA06F10843606322E043
:1006C0000D2A0FDA206BD61F06EB86071F2606FAC7
:1006D00007F18843D61F06EB860605FA06F10843A4
:1006E000206310E0E06AA2F10D0606EB86071F26E4
:1006F00006FA07F18843A2F10D0606EB860605FA15
:1007000006F10843E062F0BD816841F008018160B4
:10071000704721B1826842F4A002826003E08268DF
:1007200022F4A00282607047816841F00401816078
:10073000704700BFFEE770470549096821F01001C6
:10074000034A1160114609680143116070470000B7
:100750000020024001460020034A106800F03800E3
:1007600008431060704700000020024051B1820031
:10077000A2F1C042126842F001038200A2F1C0421D
:10078000136009E08200A2F1C0421268034B1A40D4
:100790008300A3F1C0431A6070470000FEFF0F0002
:1007A000D0E901121143C268114302691143426941
:1007B000114382691143C2691143026A1143426ABB
:1007C0001143826A1143C26A1143026B11430268EA
:1007D0009200A2F1C0421160816808290BD1016822
:1007E0008900A1F1C041096841F040020168890017
:1007F000A1F1C0410A60416B0968426B526841EA4D
:100800000211426B926841EA0221426B928941EAED
:100810000241426B128A41EA0251426B127D41EA67
:100820000261426B926911430268521C9200A2F16C
:10083000C0421160C16AB1F5804F1BD1816B09685C
:10084000826B526841EA0211826B926841EA02218E
:10085000826B128A41EA0251826B127D41EA026187
:10086000826B9269114302689200A2F1C042C2F801
:10087000041107E06FF0704201688900A1F1C041E6
:10088000C1F8042170472DE9F041024600250026F9
:10089000002000230024002791F803C00CF00F056E
:1008A00091F803C00CF0100CBCF1000F03D091F8CC
:1008B00002C04CEA050591F800C0BCF1000F31D030
:1008C000146800202BE04FF0010C0CFA00F3B1F893
:1008D00000C00CEA03069E4220D183004FF00F0CAB
:1008E0000CFA03F7BC4305FA03FC4CEA040491F844
:1008F00003C0BCF1280F06D14FF0010C0CFA00FC2C
:10090000C2F814C00AE091F803C0BCF1480F05D149
:100910004FF0010C0CFA00FCC2F810C0401C082873
:10092000D1D31460B1F800C0BCF1FF0F34DD5468BE
:1009300000202EE000F1080C4FF0010808FA0CF33B
:10094000B1F800C00CEA03069E4221D183004FF0AB
:100950000F0C0CFA03F7BC4305FA03FC4CEA040441
:1009600091F803C0BCF1280F05D100F1080C08FA7A
:100970000CF8C2F8148091F803C0BCF1480F07D1FD
:1009800000F1080C4FF0010808FA0CF8C2F81080CA
:10099000401C0828CED35460BDE8F08102460020F8
:1009A00093680B400BB1012000E000207047024625
:1009B0000020D3680B400BB1012000E000207047FD
:1009C00041617047016170470AB1016100E0416116
:1009D000704700BFFEE700BFFEE7704770B500211B
:1009E00000230F22C47804B3154C246804F4E06497
:1009F000C4F5E064210AC1F10403CA40447804FA52
:100A000003F184781440214309010E4C0678A15566
:100A1000047804F01F050124AC4005786D11AD0089
:100A200005F1E025C5F8004109E0047804F01F0550
:100A30000124AC40044D0678761145F8264070BD7F
:100A40000CED00E000E400E080E100E00249014339
:100A5000024A1160704700000000FA050CED00E04A
:100A60007047000001460020034A506820F44040CF
:100A700008435060704700000010024029B1064A48
:100A800052690243044B5A6104E0034A52698243AB
:100A9000014B5A61704700000010024029B1064A1C
:100AA000D2690243044BDA6104E0034AD26982430B
:100AB000014BDA61704700000010024029B1064A7C
:100AC00092690243044B9A6104E0034A92698243AB
:100AD000014B9A61704700000010024030B50021C0
:100AE0000022002400232D4D6D6805F00C0121B17A
:100AF000042905D0082923D105E0294D056022E00D
:100B0000274D05601FE0254D6D6805F47012234DDB
:100B10006D6805F48034022505EB92421CB9214D25
:100B2000554305600BE01D4D6D6805F400351DB1A2
:100B30001C4D5543056002E0194D5543056002E028
:100B4000174D056000BF00BF144D6D6805F0F00142
:100B50000909154D6B5C0568DD4045600F4D6D68FA
:100B600005F4E061090A104D6B5C4568DD40856065
:100B70000A4D6D6805F46051C90A0B4D6B5C456800
:100B8000DD40C560054D6D6805F44041890B074D9A
:100B90006B5CC568B5FBF3F5056130BD0010024024
:100BA00000127A0000093D0044000020540000209B
:100BB00010B501460022002300204A11012A02D16B
:100BC000094C236806E0022A02D1074C236A01E09F
:100BD000054C636A01F01F02012494401C400CB1D3
:100BE000012000E0002010BD0010024002484068D3
:100BF00000F00C0070470000001002400146002089
:100C0000034A506820F0F00008435060704700002D
:100C1000001002401149096821F480310F4A116027
:100C20001146096821F480211160B0F5803F03D09E
:100C3000B0F5802F0ED106E00849096841F48031F3
:100C4000064A116007E00549096841F4A021034AFA
:100C5000116000E000BF00BF7047000000100240BC
:100C600001460020034A506820F4E06008435060C9
:100C7000704700000010024001460020034A5068FF
:100C800020F4605040EAC1005060704700100240FC
:100C900001490866704700000000424202460020F9
:100CA000044B586820F47C1042EA01031843014BBE
:100CB000586070470010024001460020034A506807
:100CC00020F003000843506070470000001002400D
:100CD00038B5002000900024002500BF3120FFF728
:100CE00067FF05460098401C00900098B0F5A06F83
:100CF00001D0002DF2D03120FFF75AFF08B10124B6
:100D000000E00024204638BD704710B500F002F81E
:100D100010BD00000CB50020019000903348006821
:100D200040F480303149086000BF3048006800F46A
:100D3000003000900198401C0190009818B901986B
:100D4000B0F5A06FF1D12948006800F4003010B16F
:100D50000120009001E0002000900098012843D17C
:100D60002348006840F010002149086008460068E8
:100D700020F0030008600846006840F002000860A8
:100D80001A48406819494860084640684860084663
:100D9000406840F4806048600846406820F47C1059
:100DA00048600846406840F4E8104860084600681B
:100DB00040F08070086000BF0C48006800F00070D0
:100DC0000028F9D00948406820F00300074948602E
:100DD0000846406840F00200486000BF0348406891
:100DE00000F00C000828F9D10CBD000000100240F2
:100DF0000020024010B5044CA06818B10020D4E9CE
:100E00000221904710BD00006005002010B50021B0
:100E100000200022214B5B6803F00C0121B1042962
:100E200006D0082928D107E01D4B1E4C236027E07F
:100E30001B4B1C4C236023E0184B5B6803F47010C1
:100E4000164B5B6803F48032022303EB904022B917
:100E5000154B4343134C23600DE0104B5B6803F4C8
:100E6000003323B1104B43430E4C236003E00C4B83
:100E700043430C4C236003E0094B0A4C236000BF42
:100E800000BF064B5B68C3F30313084CE15C054BE2
:100E90001B68CB40034C236010BD000000100240D3
:100EA00000127A003000002000093D0034000020CC
:100EB00010B51348006840F0010011490860084669
:100EC0004068104908400E494860084600680E49CD
:100ED00008400B4908600846006820F4802008603C
:100EE0000846406820F4FE0048604FF41F00886008
:100EF000FFF70BFF4FF000600449086010BD0000D1
:100F0000001002400000FFF8FFFFF6FE08ED00E0D1
:100F100021B1028842F08002028004E002884FF68C
:100F20007F731A400280704721B1028842F00102AB
:100F3000028004E002884FF6FE731A400280704778
:100F40000146888F70470146888C704770B5002431
:100F500000220023058C4FF6FF6635400584028C85
:100F60008388848B4FF68F752C404FF6FC752C4090
:100F70000D882C434FF6FF552A400D894FF6FF761A
:100F800006EA05252A434D8806EA05252A43154D1C
:100F9000A84202D0144DA8421DD14FF2FF752A403D
:100FA0004D894FF6FF7606EA05252A434FF6FF35B1
:100FB0002A408D8806EA05252A434EF6FF752B4008
:100FC0004DF6FF752B408D8906EA05152B43CD891B
:100FD00006EA05152B4383808483CD8885870284A8
:100FE00070BD0000002C0140003401400A46002181
:100FF000818B4FF6F77319401143818370478187C6
:1010000070470000002202881D4B98420ED01D4BF5
:1010100098420BD0B0F1804F08D01B4B984205D0BE
:101020001A4B984202D01A4B984204D14FF68F7354
:101030001A404B881A43174B984207D0164B9842D8
:1010400004D04FF6FF431A40CB881A4302808B88A6
:1010500083850B8803850A4B98420BD0094B984235
:1010600008D00E4B984205D00D4B984202D00D4B44
:10107000984201D10B7A03860123838270470000D6
:10108000002C0140003401400004004000080040F2
:10109000000C0040001000400014004000400140DF
:1010A0000044014000480140F8B5164C40F225517B
:1010B000154800F044F818B3134800F0FBF8C0B22C
:1010C0000090B4F85450681C00F03F06B4F8560085
:1010D000B04207D09DF8001004F114004155A4F867
:1010E000546004E0B4F85800401CA4F85800E068CC
:1010F00028B1012269460020D4E90373B84700BF34
:10110000F8BD0000700500200038014021B182893F
:1011100042F40052828104E082894DF6FF731A4046
:101120008281704702460020B1F5007F00D100BFE8
:1011300013880B400BB1012000E00020704770B510
:101140000246002400230025002040F66A16B14222
:1011500000D100BFC1F3421501F01F03012606FABA
:1011600003F3012D02D19689334006E0022D02D10E
:10117000168A334001E0968A33400C12012606FAA3
:1011800004F41688344013B10CB1012000E00020B3
:1011900070BDF0B50346002400260025002040F66F
:1011A0006A17B94200D100BF1846C1F3421401F0DA
:1011B0001F06012707FA06F5012C01D10C3004E0C7
:1011C000022C01D1103000E014301AB107682F430F
:1011D000076002E00768AF430760F0BD2DE9F04704
:1011E00086B005460E460024A24600BFA146002751
:1011F000B08900B100BF2F462C8A4CF6FF70044026
:10120000F08804432C82AC894EF6F3100440B08879
:1012100031890843718908430443AC81AC8A4FF695
:10122000FF400440B0890443AC8201A8FFF756FC9C
:101230001F48874202D1DDF810A001E0DDF80CA0C4
:10124000A88900F4004040B10AEBCA0000EB0A1084
:1012500031684900B0FBF1F807E00AEBCA0000EB87
:101260000A1031688900B0FBF1F86420B8FBF0F097
:1012700004012009642101FB1089A88900F40040C1
:1012800040B1322000EBC900B0FBF1F000F00700E4
:10129000044308E0322000EB09106421B0FBF1F0B8
:1012A00000F00F0004432C8106B0BDE8F087000079
:1012B0000038014001468888C0F308007047C1F338
:1012C00008028280704700BFFEE7000010B50446A8
:1012D000034804702146002001F092F910BD00007F
:1012E0000300002000B587B0012148F28000FFF71D
:1012F000E5FB4FF48070ADF8180000208DF81B005E
:1013000006A91B48FFF7BFFA4FF40040FFF7AAFBFE
:10131000002001908DF808008DF809004FF460203E
:1013200003900020049001208DF8140001A91148B9
:10133000FFF766F90523012206210E48FFF788F919
:1013400001210C48FFF72FF90A48FFF7DDF900BF2C
:101350000848FFF74AF90028FAD10648FFF7E4F9F0
:1013600000BF0448FFF72AF90028FAD107B000BDF2
:10137000001C0140003C014070B506460D4606B910
:1013800015B94FF0FF3070BD06EB86000F4901EB39
:101390008004207810B16FF00100F4E7FFF7A2FF9E
:1013A0000B48606006202072686808B1686801E038
:1013B00040F6E440E060287A08B1287A00E0012095
:1013C0002074012020700020DDE70000DC040020F4
:1013D000003C01402DE9F04706460F4606B91FB90B
:1013E0004FF0FF30BDE8F08706EB86001D4901EBAA
:1013F0008004207810B96FF00100F3E70025A946BA
:101400001BE001216068FFF784F9DFF85CA006E0CB
:10141000AAF10100B0F1000A01D1C01EE2E70221E9
:101420006068FFF7D9F80028F2D06068FFF7D0F8BD
:10143000054409F1010000F0FF09207C4845E0DC8B
:10144000207CB5FBF0F5E068684340F6FF71B0FB27
:10145000F1F8B8F5803F01D34FF6FF78A7F8008088
:101460000020BFE7DC040020A086010001480078CE
:1014700070470000020000200A480078012806D0CA
:10148000022806D0032806D0042808D105E006A0CB
:10149000704707A0FCE708A0FAE709A0F8E70AA050
:1014A000F6E7000002000020484947485F5400006A
:1014B0004C4F575F540000004C4F575F4C000000EA
:1014C0004641554C540000004E4F524D414C0000D7
:1014D0000A480078012806D0022806D0032806D042
:1014E000042808D105E006A0704708A0FCE70AA080
:1014F000FAE70CA0F8E70FA0F6E7000002000020D2
:10150000484947485F54454D500000004C4F575FD5
:1015100054454D50000000004C4F575F4C49474820
:101520005400000053454E534F525F4641554C54B2
:10153000000000004E4F524D414C000010B50020FD
:101540000A4908700A4908700A490880FFF7BEFE78
:101550000949002000F09EFF04460CB1204610BD52
:101560000649022000F096FFF9E700000200002083
:1015700003000020040000208131000885310008AC
:1015800010B500F01BFB012808D10549097809B9FD
:10159000012100E000210846FFF798FE10BD000081
:1015A0000300002004200149087070470200002059
:1015B00003480078042802D10020014908707047D0
:1015C0000200002070B528480078042801D10424C6
:1015D00014E000F04DF80546B5F900001E2801DDC5
:1015E00001240BE0B5F900000A2801DA022405E025
:1015F000E878142801D2032400E000241A48007877
:1016000084420FD000F0DAFA50B9012C03D1012046
:10161000FFF75CFE04E0022C02D10020FFF756FE2B
:101620001148047011480088401C10490880084681
:101630000088642801D3002008800B48007870B12E
:1016400000F0CCFA58B909480088322801D20120AC
:1016500000E000200146022000F0D2FF03E000215C
:10166000022000F0CDFF70BD020000200400002029
:10167000004870470600002010B500200A49088085
:101680008870C870094908700949088009490870BC
:1016900000F061FC04460CB1204610BD0649002054
:1016A000FFF76AFEF9E70000060000200A000020AC
:1016B0000C0000200E0000208C3100083EB50020F8
:1016C0000290002430480088401C2F4908800846BA
:1016D0000088C82800D23EBD00202B4908806946FA
:1016E00001A800F03EFC78B9BDF9040010F1140F18
:1016F00008DBBDF904003C2804DC00BF9DF80000B5
:10170000642802D9012400E001249CB11F4800781C
:10171000401C1E4908700846007805281CD300208C
:1017200008701B480078B8B9012019490870FFF704
:1017300039FF11E0002015490870BDF90400154972
:1017400008809DF8000088701148007820B10020C2
:101750000F490870FFF72CFF02A90020FFF73AFE9F
:1017600000B1B8E7BDF808006421484340F6E44101
:10177000B0FBF1F00749C8700846C078642801D969
:101780006420C87000BFA6E70C0000200E000020F7
:101790000A0000200600002010B5002001F078F9B2
:1017A00004460CB1204610BD0020174908700023E4
:1017B000164A0A21184601F087F904460CB1204662
:1017C000F1E700F001FA00F051F804460CB12046B0
:1017D000E9E7FFF751FF04460CB12046E3E7FFF7C6
:1017E000ADFE04460CB12046DDE700F089F800F0BC
:1017F00019FA0749012000F04DFE04460CB12046BD
:10180000D1E70020CFE7000000000020191C0008ED
:101810007D3100081448007800F0010038B112480A
:10182000007800F0FE0010490870012070470E4853
:10183000007800F0020038B10B48007800F0FD009D
:10184000094908700220F1E70748007800F0040019
:1018500038B10548007800F0FB0003490870032008
:10186000E4E70020E2E700001000002070B500244B
:1018700021E0002004EB4401124A02F8110004EBBD
:10188000440102EB4101487004EB440102EB4101C9
:10189000488004EB440102EB410108710A4A52F806
:1018A00024100A4A105D00F0F5FD05460DB12846EA
:1018B00070BD601CC4B2032CDBD300200449087047
:1018C00000BFF5E7580400201400002098310008FC
:1018D0001000002038B500240CE00849085D694676
:1018E00000F068FE20B99DF80010204600F018FFB7
:1018F000601CC4B2032CF0D338BD0000983100083E
:1019000010B500F0EDFB04460CB9012000E000200A
:1019100005490870002005490880054908700549F7
:101920000870204610BD0000280000202A0000207A
:101930002C0000202D000020014800787047000096
:10194000280000202DE9F0414F48007808B9BDE893
:10195000F0814E480088401C4C49088008460088A9
:10196000142800D2F3E7002048490880FFF780FEE2
:101970000646FFF77BFD074647B14548007808B9A2
:10198000012000E000204249087002E001204049A7
:10199000087040A1424800F0C7FA4149002000F019
:1019A000EFFB05463FA13E4800F0BEFA0446B6F9FB
:1019B00000103B4A101900F07BFA204484B23849E9
:1019C000081939A100F0B0FA204484B2B178344A41
:1019D000101900F06DFA204484B23149081934A17D
:1019E00000F0A2FA25B92E49012000F0C9FB0546F6
:1019F00030A12B4800F098FA0446F178284A1019D3
:101A000000F056FA204484B22549081928A100F0B4
:101A10008BFA25B92249022000F0B2FB054637B106
:101A20001B48007818B900201D4908701DE022A14C
:101A30001B4800F079FA044600F0A4F880461849E3
:101A40000819414600F070FA204484B2144908197C
:101A50001AA100F069FA204484B2FFF70DFD804618
:101A60000F490819414600F05FFA25B90C490320D7
:101A700000F086FB054625B111480078401C10494E
:101A8000087000BF63E70000280000202A00002043
:101A90002C000020454E56204D4F4E49544F5200C9
:101AA000CA040020543A00004320483A00000000D5
:101AB000250000004C3A00004D3A000020413A0059
:101AC0002D000020002400BF00BF2D480078002812
:101AD000FBD000202A490870FFF7FCFEFFF79AFEB2
:101AE000054614E0012D04D0022D05D0032D09D1A7
:101AF00005E000F079F806E0FFF742FD03E000F0B2
:101B00007FF800E000BF00BFFFF784FE0546002D10
:101B1000E8D1FFF7D3FDFFF755FDFFF713FF00F006
:101B2000A7F8601C84B2FFF707FF58B96420B4FB24
:101B3000F0F000F0010080F001063146012000F0D5
:101B40005FFD19E000F08EF858B11920B4FBF0F0F9
:101B500000F0010080F001063146012000F050FD48
:101B60000AE03220B4FBF0F000F0010080F0010642
:101B70003146012000F044FDC82CA5D30024A3E782
:101B8000000000200548007808B105A0704706480D
:101B9000007808B905A0F9E706A0F7E721000020C2
:101BA0004D55544544000000200000204155544F3D
:101BB000000000004D414E55414C000001480078A6
:101BC00070470000200000200020024908700249F0
:101BD0000870704720000020210000200148007894
:101BE00070470000210000200448007808B9012057
:101BF00000E000200149087070470000200000202C
:101C00000448007808B9012000E00020014908706C
:101C100070470000210000200122014B1A7070471C
:101C20000000002010B50A49002000F0D5FF04464E
:101C30000CB9012000E00020064908700020064988
:101C400008800649087006490870204610BD00004B
:101C5000A8310008220000202400002026000020D7
:101C6000270000200148007870470000270000206E
:101C70002DE9FF472E48007808B9BDE8FF872D48B9
:101C80000088401C2B49088008460088B0F5FA7F80
:101C900000D2F2E7002027490880FFF7E9FC05465B
:101CA000FFF78CFF08B924A000E025A08146FFF7CC
:101CB0000FFC8046E878A978CDE90298CDE90010BC
:101CC000B5F9003020A260212E48FEF7A9FA04469B
:101CD000002C01DD602C05DB2B480078401C2A49D4
:101CE000087019E000270FE0A2B22649002000F09A
:101CF000B7FF0646A64205D10020234908702349B4
:101D00000870BAE7781CC7B2022FEDD91E480078D8
:101D1000401C1D49087000BF1B480078032805D3EC
:101D200003201949087001201849087000BFA4E772
:101D300022000020240000204155544F00000000E4
:101D40004D414E55414C00007B2274656D70223A26
:101D500025642C2268756D69223A25752C226C69E0
:101D6000676874223A25752C226D6F6465223A22C9
:101D70002573222C22616C61726D223A2225732216
:101D80007D0D0A006A0400202600002027000020A4
:101D900010B51020FEF7D0FC0220FEF7DBFC4FF45C
:101DA0008030FEF737FFFEF793FF012800D010BD0B
:101DB0004FF4E0114FF48030FEF770FF0020FEF783
:101DC0001DFF4FF48060FEF74BFF0020FEF754FF2D
:101DD0000120FEF75DFF00BF3920FEF7E9FE002875
:101DE000FAD00220FEF768FF00BFFEF7FFFE0828CA
:101DF000FBD1FFF70BF800BFD9E700000EB50121BA
:101E00000846FEF74BFE4720ADF800000020ADF875
:101E100002004FF6FF70ADF804000020ADF8060098
:101E200069464FF08040FFF7EDF801218807FFF782
:101E30007BF80120014908700EBD00002F00002032
:101E400008B501210802FEF739FE4FF40060ADF835
:101E5000000048208DF8030003208DF80200694639
:101E60000148FEF710FD08BD002001402DE9F843B0
:101E7000074688461446002500BF6946062000F044
:101E800061FB064616B13046BDE8F8839DF80000B8
:101E9000B84203D104B125600020F5E7454502D3DF
:101EA0006FF00200F0E7012000F0CCFD6D1CE4E7CC
:101EB0002DE9FC4107460D460024384600F042F863
:101EC0000646002D01DA684200E02846804600BF41
:101ED0000A20B8FBF0F100FB118030302146621C73
:101EE000D4B20DF801000A20B8FBF0F8B8F1000FE9
:101EF00001D0072CECD3002D05DA2D222046611CE1
:101F0000CCB20DF8002007E0601EC4B21DF804201A
:101F10003046711C8EB23A540CB10F2EF4D300200F
:101F2000B8553046BDE8FC810246002003E00B5C5A
:101F30001354431C98B20B5C0BB10F28F7D300234A
:101F4000135470470146002001E0421C90B20A5C25
:101F5000002AFAD1704710B50021062000F072FB6C
:101F600010BD2DE9FE4306460F460020009006B145
:101F70001FB94FF0FF30BDE8FE830121062000F0BD
:101F800061FB04460CB12046F5E70021062000F075
:101F900081FB04460CB12046EDE744F6206000F0DA
:101FA00051FD0121062000F075FB1E2000F04AFDC6
:101FB0000021062000F046FB04460CB12046DAE77B
:101FC00000225A211046FFF751FF04460CB120466B
:101FD000D1E700225A210120FFF748FF04460CB147
:101FE0002046C8E700223C211046FFF73FFF044689
:101FF0000CB12046BFE700252BE0002001A9485581
:10200000804621E000223C210120FFF72FFF0446FB
:102010000CB12046AFE76A465A210020FFF726FFA1
:1020200004460CB12046A6E701A8405D4006000E1C
:1020300001A948550098282804D901A8405D40F01E
:102040000100485508F10108B8F1080FDAD3681CFF
:10205000C5B2052DD1D39DF804009DF805100844A4
:102060009DF8061008449DF807100844C0B29DF87A
:102070000810884202D06FF001007CE79DF8040050
:1020800038709DF806003080002074E770B540F28B
:102090003F13EF220021084600F0C4FB05460DB1B6
:1020A000284670BD002405E000200C4921F81400EA
:1020B000601C84B2F02CF7D300240AE0F022074918
:1020C000002000F059FC05460DB12846E9E7601CE8
:1020D00084B2B4F5A07FF1D30020E2E758000020DD
:1020E00070B5002000F00CFC04460CB1204670BD19
:1020F0001121002000F01AFC04460CB12046F6E73E
:102100001D4800F09FFC002524E005EB05101B4A4C
:10211000115C002000F00AFC04460CB12046E6E702
:1021200000260EE005EB0510144A1044801C815D6A
:10213000002000F00DFC04460CB12046D7E7701CCF
:10214000C6B205EB05100D4908444078B042E9DC01
:10215000681C85B2112DD8DB2921002000F0E6FB98
:1021600004460CB12046C2E744F6206000F06AFC49
:10217000FFF78CFFBBE70000C0D401005C30000813
:102180002DE9FF5F07460D46042F00D225B94FF019
:10219000FF3004B0BDE8F09F4FEA4719002458E033
:1021A0002878039000200190039800B16D1C0398DB
:1021B00000F010FB294901EB00100290002626E0F8
:1021C000701000904FF0000A1CE0524600990298EF
:1021D00000F016FB10B14FF6FF7000E000208346C0
:1021E0000198411C89B201911D4921F810B0019854
:1021F000411C89B201911A4921F810B00AF101007D
:1022000000F0FF0ABAF1080FDFD3701CC6B2202E0F
:10221000D6D309F11F018BB2102101EB0411491E25
:102220008AB22001494600F0FDFA8046B8F1000F5D
:1022300001D04046ADE74FF400720949002000F09C
:102240009BFB8046B8F1000F01D04046A1E7601C1F
:10225000C4B20F2CA4D300209BE70000802D0008FF
:102260005800002000B59DB001210802FEF706FCD1
:102270000020169017900F2018900020199002202F
:102280001A901B90C0061C901C2216A90FA8FEF7DE
:1022900087F8062000900020019002901020039003
:1022A0000020049005900690079008904FF480500D
:1022B000099000200A904FF480400B9000200C9071
:1022C00016A80D900FA80E906846FEF769FA012136
:1022D0000620FEF74BFA1DB000BD000008B5012135
:1022E0000420FEF7EBFB1020ADF800008DF8030092
:1022F00003208DF8020069460348FEF7C4FA102156
:102300000148FEF75DFB08BD0008014038B50446F2
:102310002089ADF8000003208DF80200A07A012882
:1023200003D110208DF803000CE0E07A012801D1E0
:10233000482005E0E07A022801D1282000E00420AE
:102340008DF8030069466068FEF79DFA38BD00000D
:1023500008B501214FF4B070FEF7B0FB18208DF8DE
:10236000030003208DF80200ADF80000694615480F
:10237000FEF789FA3020ADF8000069461148FEF7F3
:1023800082FA4FF4E060ADF8000069460D48FEF7B0
:102390007AFA4FF44040ADF8000069460948FEF76C
:1023A00072FA4FF68070ADF8000069460648FEF7F5
:1023B0006AFA41F20100ADF8000069460348FEF7F1
:1023C00062FA08BD001401400018014000200140DD
:1023D00010B500F039F8FFF781FF00F005F800F0C4
:1023E00019F8FFF7B5FF10BD08B501214020FEF731
:1023F00065FB1C20ADF8000048208DF80300032089
:102400008DF8020069460248FEF73DFA08BD00005B
:102410000018014008B501210820FEF74FFB0120FC
:10242000ADF8000010208DF8030003208DF80200A5
:1024300069460448FEF727FA01210248FEF7C2FA6E
:1024400008BD0000000C014008B501214820FEF73E
:1024500035FB2020ADF8000010208DF8030003208C
:102460008DF8020069460948FEF70DFA2021074859
:10247000FEF7A8FA2020ADF8000069460448FEF7F0
:1024800002FA20210248FEF79DFA08BD000C014027
:10249000001801402DE9F04105460E46072D00D2F7
:1024A0001EB94FF0FF30BDE8F081244800EB051461
:1024B000207810B16FF00100F5E7214850F83500A1
:1024C00060601F4800EBC500808820811C4800EB3D
:1024D000C500807960703078A0727078E072F07812
:1024E0002073022D0CD0052D02D0062D0DD108E051
:1024F00001210420FEF7E2FA2046FFF707FF08E07B
:1025000007E02046FFF702FF03E02046FFF7FEFE4C
:1025100000BF00BFA07A01280CD1607850B9207BA1
:1025200008B9012000E0002007463946284600F09F
:10253000B1F800BF012020700020B4E7F0040020B3
:10254000B03100082DE9F04106460D46072E00D2B5
:102550001DB94FF0FF30BDE8F081144800EB0614C0
:10256000207810B96FF00100F5E7607848B11048A5
:10257000FEF7E6FC08B1012000E0002028700020F2
:10258000E9E7A07A012804D121896068FEF70FFAF3
:1025900003E021896068FEF701FA0746012F00D1A8
:1025A00000E0002028700020D5E70000F0040020A3
:1025B00000080040F8B504460D46072C00D215B9B6
:1025C0004FF0FF30F8BD0D4800EB0416307810B91D
:1025D0006FF00100F6E769462046FFF7B3FF0746B4
:1025E0000FB13846EEE7307B9DF80010884201D1EC
:1025F000012000E0002028700020E3E7F004002024
:102600002DE9F04105460E46072D03D34FF0FF306C
:10261000BDE8F0810A4800EB0514207810B96FF08E
:102620000100F5E70EB1207B04E0207B08B9012012
:1026300000E0002007463946284600F02BF8E7E77F
:10264000F004002070B506460D46072E02D34FF069
:10265000FF3070BD25B1012D02D04FF0FF30F8E7FB
:102660000B4800EB0614207810B96FF00100F0E77A
:10267000607810B16FF00100EBE7A07AA84201D1B9
:102680000020E6E7A5722046FFF740FE0020E0E7C5
:10269000F004002070B505460E46072D02D34FF01A
:1026A000FF3070BD134800EB0514207810B96FF0AF
:1026B0000100F6E7607850B1012E01D1FA2000E068
:1026C000002001460C48FEF79AFC0020E9E7A07ABA
:1026D000012802D06FF00100E3E7012E01D10123B0
:1026E00000E000231A4621896068FEF76DF900209A
:1026F000D7E70000F00400200008004010B5FFF705
:1027000047FB00F0F6F8FFF763FE00F051F9FEF723
:10271000E9FDFFF7A7FD00F0EFFAFFF791FB10BD11
:1027200010B5024602EB4203284C04EB4300037849
:1027300033B1012B09D0022B18D0032B41D124E057
:1027400011B10123037043703EE059B143785B1C23
:1027500043704378052B08D3022303700023438082
:10276000037102E00023037043702DE041B1438800
:102770005B1C43804388642B06D30123037103E071
:1027800003230370012343701EE0A9B943785B1C47
:1027900043704378052B13D303793BB9012393404E
:1027A000DBB20B4C24782343094C237000230370C5
:1027B00043704380037103E00223037000234370DE
:1027C00002E00023037000BF00BF10BD58040020CA
:1027D0001000002070B505460DB9002070BD2946D7
:1027E0000648FDF7D3FD04460CB1207808B9002057
:1027F000F4E70248201AC0B2F0E7000030300008C9
:1028000010B50346082904D2985C084100F0010085
:1028100010BD02F10800185CA1F10804204100F08D
:102820000100F5E72DE9F04105460E4617469846AA
:102830002A21002000F07AF8044614B12046BDE8B1
:10284000F0812912002000F083F804460CB12046E4
:10285000F5E7E9B2002000F07BF804460CB1204611
:10286000EDE73912002000F073F804460CB1204661
:10287000E5E7F9B2002000F06BF804460CB1204601
:10288000DDE72B21002000F051F804460CB1204672
:10289000D5E73112002000F05BF804460CB1204669
:1028A000CDE7F1B2002000F053F804460CB1204609
:1028B000C5E74FEA2821002000F04AF804460CB191
:1028C0002046BCE708F0FF01002000F041F8044674
:1028D0000CB12046B3E72C21002000F027F8AEE72A
:1028E00010B5FFF70BFFFEF757FFFFF7EBF80020DF
:1028F00010BD10B54FF4A060FEF7A8F810BD0000A1
:1029000070B5044614B14FF0FF3070BD064805198C
:10291000287810B16FF00100F7E7FFF7A3FC012062
:1029200028700020F1E700002E000020024612B1BE
:102930004FF0FF3070470548805C10B96FF0010020
:10294000F8E74FF0D84001800020F3E72E00002088
:10295000024612B14FF0FF3070470548805C10B955
:102960006FF00100F8E7034801800020F4E7000061
:102970002E0000200008006C30B5034603B911B9E1
:102980004FF0FF3030BD0848C05C10B96FF0010057
:10299000F8E7002004E031F81040044D2C80401C82
:1029A0009042F8D30020EDE72E0000200008006CD4
:1029B00000B589B001210820FEF780F84FF480703F
:1029C000ADF8200018208DF8230003208DF8220098
:1029D00008A91A48FDF757FF01210420FEF75EF809
:1029E0004720ADF814000020ADF8160040F2F310B7
:1029F000ADF818000020ADF81A0005A91048FEF740
:102A000001FB6020ADF804000120ADF806000020B5
:102A1000ADF80A00ADF80C0001A90948FEF796FAD6
:102A200008210748FEF7E2FA01210548FEF770FA8F
:102A300001210348FEF778FA09B000BD000C0140FF
:102A40000008004070B504461048007808B9FFF748
:102A5000D5F916E04EF66020844200D900E0A0B21D
:102A600006464FF08040FEF76EFA054600BF4FF075
:102A70008040FEF768FA401B80B2B042F7DBA41B2F
:102A800000BF002CE6D1002070BD00002F00002008
:102A900070B5044614B14FF0FF3070BD084800EB2C
:102AA0000415287810B16FF00100F6E705480078AA
:102AB00008B9FFF7A3F9012028700020EDE7000016
:102AC000600500202F0000202DE9F04705460C4648
:102AD00017469C4605B91CB94FF0FF30BDE8F0879A
:102AE000274800EB0511087810B96FF00100F5E7F1
:102AF000487810B16FF00100F0E74C608F60C1F8CA
:102B00000CC0204804FB00F2B2F1807F02D34FF0EA
:102B1000FF30E3E71346B3F1807F01D3012026E0C5
:102B200023F07F40401E4FF0E026706170170F26A3
:102B300000280CDA4FEA06784FEA186ADFF8488076
:102B400000F00F09A9F1040908F809A007E04FEA0D
:102B500006784FEA1869DFF8348008F8009000BF63
:102B600000204FF0E026B06107203061002010B156
:102B70006FF00300B2E7012048700020AEE70000CC
:102B8000600500204019010018ED00E000E400E0BD
:102B9000014609B9014870470020FCE700380140B0
:102BA000014609B9252070470020FCE738B50546E5
:102BB0000C462846FFF7F4FFC0B28DF80000022053
:102BC0008DF8010000208DF802008DF80340684662
:102BD000FDF704FF38BD00002DE9F04106460F4621
:102BE00006B91FB94FF0FF30BDE8F081C6EBC60053
:102BF00000EB0610194901EB8004207810B16FF04A
:102C00000100F1E73046FFF7C3FF054615B94FF065
:102C1000FF30E9E700F070F80020A4F85400A4F8B1
:102C20005600A4F85800E060206108212846FEF70D
:102C300079FA2846FEF73EFB012240F2255128464C
:102C4000FEF7A7FA01213046FFF7B0FF656038684C
:102C5000A060012020700020C6E700007005002061
:102C60002DE9F04705460E46174605B91EB94FF047
:102C7000FF30BDE8F087C5EBC50000EB05101C492F
:102C800001EB8004207810B96FF00100F1E74FF0FC
:102C9000000818E0DFF85C9006E0A9F10100B0F14F
:102CA000000901D1C01EE4E780216068FEF73AFA0E
:102CB0000028F2D016F808106068FEF700FB08F153
:102CC00001001FFA80F8B845E4DBDFF8288006E051
:102CD000A8F10100B0F1000801D1C01EC9E74021F0
:102CE0006068FEF71FFA0028F2D03846C1E70000FE
:102CF00070050020400D030000B585B0012144F2AD
:102D00000400FDF7DBFE4FF40070ADF81000182052
:102D10008DF8130003208DF8120004A91648FDF762
:102D2000B2FD4FF48060ADF8100004208DF8130060
:102D300004A91148FDF7A7FD4FF4E13000900020F1
:102D4000ADF80400ADF80600ADF80800ADF80C00D1
:102D50000C20ADF80A0069460848FEF73FFA012248
:102D600040F225510548FEF714FA01210348FEF709
:102D7000CDF905B000BD0000000801400038014059
:102D80000000000000000000000000000000000043
:102D900000000000000000000080808080808080B3
:102DA0000000000000000000000C0C00000000000B
:102DB000000708101008070000F008040408F000DD
:102DC0000008081F00000000000404FC04040000C8
:102DD000000E101010110E00000C142444840C007E
:102DE000000C101111120C0000180404048870006B
:102DF00000000304081F000000E0202424FC24003D
:102E0000001F101111101000009884040488700035
:102E1000000708111118000000F0880404887000F1
:102E2000001C1010131C1000000000FC000000002B
:102E3000000E111010110E00003844848444380034
:102E4000000708101008070000008C444488F000B8
:102E500000000003030000000000000C0C00000054
:102E60000000000001061820000618608000000025
:102E70000F100F0007180000008438C07884780015
:102E80000000031C07000000043CC44040E41C0494
:102E9000101F1111110E000004FC040404887000BE
:102EA000030C101010101C00E0180404040810009B
:102EB000101F10101008070004FC04040408F000A0
:102EC000101F11111710080004FC0404C40418009A
:102ED000101F11111710080004FC0400C0000000AE
:102EE000030C1010101C0000E0180404447840008B
:102EF000101F100000101F1004FC84808084FC044C
:102F00000010101F10100000000404FC0404000056
:102F1000000010101F10100003010101FE0000004E
:102F2000101F11031418100004FC0480641C04001A
:102F3000101F10000000000004FC040404040C0036
:102F4000101F1F001F1F100004FC00FC00FC0400E9
:102F5000101F0C0300101F1004FC0400E018FC00FC
:102F60000708101010080700F00804040408F00017
:102F7000101F101010100F0004FC848080800000CF
:102F80000708101010080700F01824241C0AF2008B
:102F9000101F111111110E0004FC0400C0300C04AC
:102FA000000E111010101C00001C04848444380012
:102FB0001810101F10101800000004FC040000007E
:102FC000101F100000101F1000F804040404F80083
:102FD000101E110000131C100000E01C7080000087
:102FE0001F10001F00101F00C03CE000E03CC000AC
:102FF0001018160101161810040C34C0C0340C044B
:10300000101C1300131C1000000004FC040000003E
:1030100008101010131C1000041C64840404180011
:103020000000000000000000010101010101010198
:10303000202D2E303132333435363738393A2F257A
:103040004142434445464748494A4B4C4D4E4F50F8
:103050005152535455565758595A5F00CF0300C127
:1030600030000000000000000000000000ED0464DB
:103070000312810000000000000000000000E803CF
:10308000850078000000000000000000000000EA59
:1030900003392C00000000000000000000000000C8
:1030A000EB02000000000000000000000000000033
:1030B00000C001230000000000000000000000002C
:1030C0000000C1011000000000000000000000002E
:1030D000000000C5023E28000000000000000000C3
:1030E00000000000C7018600000000000000000092
:1030F0000000000000360148000000000000000051
:103100000000000000003A0155000000000000002F
:1031100000000000000000B10200180000000000E4
:103120000000000000000000B60308822700000035
:10313000000000000000000000F603010000000095
:103140000000000000000000000026010100000057
:103150000000000000000000000000E00F0F312B15
:103160000C0E084EF1370710030E0900E10F000E98
:103170001403110731C148080F0C31360F0100014B
:10318000000100010001000001000000000000003B
:10319000E40C00000800000003040500010000002A
:1031A000010000000201010000C20100080001004E
:1031B000000C014020000000001801402000000029
:1031C000000C014000010100001801401000000047
:1031D0000018014008000000000801400100000044
:1031E0000020014000080000083200080000002014
:1031F000580000006C0100086032000858000020F0
:10320000D80B00008801000800000000000000004A
:103210000000000000000000000000009B310008DA
:103220009F310008A33100080000000000000000EA
:10323000000000000000000000A24A04000000009E
:103240000000000001020304060708090000000056
:103250000102030401020304060708090204060828
:04000005080001E10D
:00000001FF
